:020000040800F2
:10000000400F0024E5030008B9A50008E9960008A0
:10001000B5A50008911F0008DDB900080000000028
:10002000000000000000000000000000A3A800087D
:100030001125000800000000BDA50008A5A80008C3
:10004000FF030008FF030008FF030008FF03000888
:10005000FF030008FF03000813250008FF03000842
:10006000FF030008FF030008FF030008951F0008B6
:10007000FF030008FF030008FF030008FF03000858
:10008000FF030008FF030008FF030008FF03000848
:10009000FF030008FF030008FF030008FF03000838
:1000A000FF030008FF030008FF030008FF03000828
:1000B000FF030008FF030008FF030008FF03000818
:1000C000FF030008FF030008FF030008FF03000808
:1000D000FF030008CDB90008FF030008FF03000874
:1000E000FF030008FF03000800000000FF030008F2
:1000F000FF030008FF030008FF030008FF030008D8
:10010000FF030008FF030008FF030008FF030008C7
:10011000FF030008FF030008FF030008FF030008B7
:10012000FF030008FF030008FF030008FF030008A7
:10013000FF030008FF030008FF030008FF03000897
:1001400000000000000000000000000000000000AF
:10015000FF030008FF030008FF030008FF03000877
:10016000FF030008FF030008FF030008FF03000867
:10017000FF030008FF030008FF0300080000000061
:10018000FF030008FF030008FF030008FF03000847
:10019000FF030008FF030008FF030008FF03000837
:1001A000FF030008FF030008FF030008FF03000827
:1001B000FF030008FF030008FF030008FF03000817
:1001C000FF030008FF030008FF030008FF03000807
:1001D000FF030008FF030008FF030008FF030008F7
:1001E000FF030008FF030008FF030008FF030008E7
:1001F000FF030008FF030008FF030008FF030008D7
:10020000FF030008FF030008FF030008FF030008C6
:10021000FF030008FF030008FF030008FF030008B6
:10022000FF030008FF030008FF03000800000000B0
:10023000FF030008FF03000800000000FF030008A0
:10024000FF030008FF030008FF030008FF03000886
:10025000FF030008FF030008FF030008FF03000876
:10026000FF030008FF030008FF030008FF03000866
:10027000FF030008FF030008FF0300080000000060
:10028000FF030008FF030008FF0300080000000050
:1002900000000000FF03000800F002F800F092F8F0
:1002A0000AA090E8000C82448344AAF10107DA45D1
:1002B00001D100F087F8AFF2090EBAE80F0013F091
:1002C000010F18BFFB1A43F00103184730C00000AC
:1002D00050C00000103A24BF78C878C1FAD852073D
:1002E00024BF30C830C144BF04680C6070470000B0
:1002F0000023002400250026103A28BF78C1FBD82F
:10030000520728BF30C148BF0B6070476E2900F00C
:100310000382702900F04D8366290BF04C87652914
:100320000BF0498767290BF0468761290BF0458759
:1003300003681B0A28BF41F08001692900F0B081E1
:10034000642900F0AD81752900F0AA816F2900F0C1
:10035000DA82782900F01983E92900F07582E4290E
:1003600000F07282F52900F06F82EF2900F0D78249
:10037000F82900F018830368DB0928BF41F08001E9
:10038000632901F01B80732901F02080E32901F02B
:100390002B80F32901F03080002070471FB50BF04F
:1003A00005FF01F07FF80400002000210BF0E8FEBB
:1003B000401C6060002000210BF0CCFEE0601FBDFF
:1003C00010B510BD01F040F81146FFF7E7FF0BF044
:1003D0005DFB01F01DF903B4FFF7F2FF03BC01F070
:1003E00055F900000948804709480047FEE7FEE745
:1003F000FEE7FEE7FEE7FEE7FEE7FEE7FEE7FEE7D5
:1004000004480549054A064B70470000E5A9000865
:100410009902000840090024400F0024400B0024EA
:10042000400B002453EA020C00F069802DE9F04BE8
:100430004FF00006002B1FBFB3FA83F503FA05F453
:1004400024FA05F65E4012BF1643B2FA82F502FAAC
:1004500005F4C5F120051EBF22FA05FC44EA0C0490
:10046000203556EA044C4FEA144418BF641C4FF080
:1004700000084FF00009904271EB030C39D30029BA
:1004800019BFB1FA81F701FA07F6B0FA80F700FA5E
:1004900007F6C7F120071EBF20FA07FC46EA0C0644
:1004A0002037B6FBF4FCA7EB0507103F07F01F0B46
:1004B000CBF120060CFA0BFB2CFA06F644BFB34630
:1004C0000026202FA4BF5E464FF0000B5BEA060C0F
:1004D00008BF4FF0010B19EB0B09ABFB027C48EB9B
:1004E0000608C01B06FB02CC0BFB03CC71EB0C0116
:1004F000C1E70B46024641464846BDE8F08B13B5BE
:100500004FF000004FF00001AFF30080BDE81C4049
:10051000704700007CB51D4616460C00009001D0C7
:100520002044401E074B7B442A46694601903046D2
:1005300000F00BF905461CB10020694600F018F9DF
:1005400028467CBD5102000010B5431C02E010F8A3
:10055000011B71B18107FAD14FF0013202C88C1A28
:100560008C4314EAC211F9D0C01A0A0603D0C01E87
:1005700010BDC01A10BD0A0401D0801E10BD0902B2
:10058000FCD0401E10BD4FF0000200B5134694464B
:100590009646203922BFA0E80C50A0E80C50B1F1DB
:1005A0002001BFF4F7AF090728BFA0E80C5048BFEF
:1005B0000CC05DF804EB890028BF40F8042B08BF8D
:1005C000704748BF20F8022B11F0804F18BF00F889
:1005D000012B704770477047704770B504468569B6
:1005E0000068C10601D5302600E02026C00707D0EC
:1005F00070BDD4E9012130469047206A401C20623A
:100600006D1EF6D570BD70B5044685690078C007CB
:1006100007D170BDD4E9012120209047206A401CF9
:1006200020626D1EF6D570BD09684A0501D540B23D
:100630007047C905FCD500B2704709684A0501D565
:10064000C0B27047C905FCD580B2704770B50C4682
:100650000546012A05D02878800600D5EA690023DE
:1006600002E0012305E05B1C934202D2E05C00281B
:10067000F9D1A869E618C01AA861286A1844286246
:100680002846FFF7AAFF04E0D5E9012114F8010B81
:100690009047B442F8D32846FFF7B5FF70BD00007D
:1006A0002DE9F0410646002410687529314616A54B
:1006B00010D0FFF7B9FF002802DA404213A507E087
:1006C00031688A0701D512A502E0490704D511A5B2
:1006D000012401E0FFF7B1FF00210A2206F12407FF
:1006E00009E0B0FBF2FCB0FBF2F302FB1C0030307F
:1006F00078541846491C0028F3D123462A46304630
:10070000BDE8F04100F069BA000000002D000000D3
:100710002B0000002000000011680268006A5305E9
:1007200001D508700AE0D30501D5088006E013065C
:1007300003D5C217C1E9000200E00860012070473C
:1007400001694A1C02610878704700B58FB0CDE995
:1007500001310021059105497944CDE90310114685
:10076000684600F031F90FB000BD0000E5FFFFFF63
:100770000A6802F8010B0A607047D1E900239A4227
:1007800002D2531C0B601070704700002DE9FF5F10
:1007900015468A460446DFF8AC80F8440027D8E9BD
:1007A00000103E46CDE9001010E03AF816106A46F7
:1007B00002A800F025FE411C07D02178890603D548
:1007C000E269391891420DD80744761C20788006DA
:1007D00002D5E069B84205DDAE42E6DB3AF8160024
:1007E0000028E2D1A069C01BA0612046FFF7F5FEFA
:1007F000D8E90010CDE90010002017E03AF81810F1
:100800006A4602A800F0FCFDB0F1FF3F81460BD024
:1008100000250DF1080B05E0D4E901211BF80500C6
:1008200090476D1C4D45F7D308F10100B04280465A
:10083000E4DB206A384420622046FFF7E4FEBDE88E
:10084000FF9F000062BA00002DE9F0418046D21DF2
:1008500022F007020025D2E90002F52915A614D0DE
:10086000011E72F1000106DA0023D0EB030063EBF6
:10087000020211A608E0D8F800108B0701D50FA6D8
:1008800002E0490701D50EA601251146002408F112
:10089000240704E000F05CF930323A55641C50EA59
:1008A0000102F7D12B46324621464046BDE8F041D1
:1008B00000F093B9000000002D0000002B000000A4
:1008C0002000000030B4002100F1240408E002F010
:1008D0000705D208303542EA4372DB086554491CEB
:1008E00052EA0305F3D10468002310A2250707D5B7
:1008F000A40600D421B1C46901230DA2641EC46101
:1009000030BC00F06AB910B5044621461068FFF704
:1009100094FE02462046BDE810400023D2E7D21DD7
:1009200022F00701D1E90023CCE70000000000001D
:1009300030000000F0B40D460188090502D5214CB5
:100940007C4402E01F4C7C440E34002100F124065C
:1009500008E002F00F071209E75D42EA03721B0983
:100960007754491C52EA0307F3D102780023120797
:1009700004D5702D06D009B1022311342246F0BCF3
:1009800000F02BB901231034F8E770B504460D468A
:1009900021461068FFF751FE024629462046BDE871
:1009A00070400023C6E7D21D22F00703D3E90023DD
:1009B000C0E70368126843F0200303600823C361A3
:1009C0000023B7E7C4B800002DE9F05F894604466C
:1009D0004FF0000ADFF874B1FB44C0F820A02046B5
:1009E000E1688847002874D0252806D0D4E9012181
:1009F0009047206A401C2062F1E700265F462046AF
:100A0000E16888472028054607DB312D05D2781993
:100A100010F8200C08B10643F1E7B00701D526F025
:100A20000406C4F81CA00027C4F818A02A2D09D079
:100A300028460BF009F838B304EB8708303DC8F8B6
:100A4000185019E059F8041B204604EB8702916105
:100A5000E1688847012F054618D1E069002820DAAF
:100A600026F020061DE0D8F8180000EB800005EB0A
:100A700040003038C8F818002046E168884705462D
:100A80000AF0E2FF0028EED1012F0AD02E2D08D166
:100A90002046E16888477F1C0546022F46F0200665
:100AA000C4DBA069002803DA404246F00106A061D9
:100AB000F00701D026F010066C2D0BD0682D09D060
:100AC0004C2D39D06A2D35D0742D35D07A2D33D0B8
:100AD00016E038E0E1682F4620468847B8420546D0
:100AE00009D16C2F26D04FF48060E1680643204680
:100AF0008847054604E06C2F1AD04FF480700643F7
:100B00000DB3A5F14100192802D8203546F400663E
:100B10004A462946204626604E46FFF7F7FB80B13D
:100B200001280BD0F61D26F0070000F1080956E752
:100B30004020E4E78020D8E70020D6E706F104094A
:100B40004DE7284652E7206ABDE8F09F54B8000000
:100B500030B5B0F10A024FEA900E71F100034EEA8F
:100B6000817EB0EB0E0061EB91014FEA101E4EEA60
:100B7000017E10EB0E0041EB11114FEA102E4EEAF0
:100B8000016E10EB0E0041EB11214FEA104E4EEAC0
:100B9000014E10EB0E0041EB1141401841F10001F4
:100BA0004FEAD00040EA41704FEAD10110EB8005D6
:100BB0004FEA810444EA907444EB01046D1944EB5C
:100BC0000404521BA3414FF0000348BF0A3200D572
:100BD00030BD401C41F1000130BD2DE9F0470D460C
:100BE00099469246044600F124080168880604D517
:100BF000E06921F01001216000E00120A84201DD40
:100C0000471B00E00027A1697A1902EB0900081AC6
:100C1000A0612078C00602D42046FFF7DEFC002643
:100C200008E0D4E901211AF806009047206A401C28
:100C3000761C20624E45F4DB2078C0060AD520469B
:100C4000FFF7CBFC06E0D4E9012130209047206A71
:100C5000401C2062381EA7F10107F4DC07E0D4E94C
:100C6000012118F805009047206A401C2062281EC8
:100C7000A5F10105F3DC2046FFF7C5FC207800064E
:100C800002D50220BDE8F0870120FBE770472DE97F
:100C9000FF4F0C461E464FF0FF378BB0D2E90001E4
:100CA000DDF860800A908A46C1F30A5505B93D46D1
:100CB000002108464FF00000BAF1000F00F4400098
:100CC00005DA00EB80004FF4400101EA50004FEAE2
:100CD0009059B9F1010F00DDB9460A9850EA4A006F
:100CE0000ED044F61050A5F2FF3545432F14B8F14D
:100CF000000F1ED07542291E1EDDC9F100021CE046
:100D0000B8F1010F4FF0000001D0302103E0F243B1
:100D100005E02154401CB042FBDB3046002200219C
:100D200021540B99C1F80880C1E900200FB0BDE83B
:100D3000F08FBD1B6D1CDEE74A4600DA694206A84B
:100D400000F0F4FB06AB93E8070003AB83E8070071
:100D500050460A9900F0A1FC8DE80700A0F500506C
:100D60001F3800900398002D0ADD42F21F014A4609
:100D70000844002303A90390684600F00AFF09E035
:100D8000A0F500504A461F38002303A90390684687
:100D900000F014FF8DE807000004000C03D04FF0B2
:100DA000FF30410800E01046B8F1000F03D00022E8
:100DB000009215461EE0751E05D4FFF7C9FE3032BD
:100DC00062556D1EF9D5B3460122084302D00022B8
:100DD0007F1C04E02078302801D100227F1E002AE9
:100DE000099784D01DE0112D07DAFFF7B1FE3032EC
:100DF00062556D1C50EA0102F5D1084302D00098FB
:100E0000C8B10EE00021681E05E0235C625C6354FB
:100E10002254401E491C8142F7DBAB46A81B401EF2
:100E20000990002004F80B000B98099AC0F808807C
:100E3000C0E9002B7AE711264FF0000857E72DE9AB
:100E4000F04F88460446D21D22F0070191B0D1E947
:100E50000001CDE90A010AF0C3FD02460B98C00F5C
:100E600001D02D2007E02068810701D52B2002E06A
:100E7000202101EAC000032A099001D0072A05DBDE
:100E800003464146204600F011FB0BE12078800626
:100E900001D5E06900E00620B8F1650F814606D073
:100EA000B8F1660F18D0B8F1670F70D131E00020AB
:100EB000B9F1110F009001DB112301E009F10103E9
:100EC0000AAA01A90CA8FFF7E2FEDDE90C700026D2
:100ED00009F10105834647E001204B4600904FF0A1
:100EE00000470AAA01A90CA8FFF7D1FEDDE90DB061
:100EF0000C995D46002610B909F101000D18B9EBF7
:100F0000050003D4C0F1FF3609F10105A5EB090086
:100F10002BE0B9F1010F01DA4FF001090020B9F11E
:100F2000110F0090484601DD112300E003460AAA94
:100F300001A90CA8FFF7ABFEDDE90C704D460026B9
:100F40008346207800070AD4AB4500DA5D4601A845
:100F5000012D04DD411911F8011C302907D04F453E
:100F600002DA17F1040F04DA012082460FE06D1E49
:100F7000EEE7002F02DCED1B3E4403E0781CA842A4
:100F800000DD7D1CB81B00F1010A4FF000472078FE
:100F9000000703D4AA4501DB4FF0FF3A0021B7F167
:100FA000004F0DF143088DF8431024D002202B236D
:100FB000002F01DA7F422D230A21021EA0F1010039
:100FC00000DC5FB197FBF1FC97FBF1F201FB1C7CAD
:100FD00017460CF1300C08F801CDEEE7A8F101003E
:100FE00003702188090501D5452100E06521A0F1A4
:100FF000010800F8011C09980FA9A1EB0807FF1DC3
:1010000000B10120411901EBEA70A1693844081AC6
:10101000401EA0612078C00602D42046FFF7DDFA0A
:10102000099828B1D4E901219047206A401C206228
:101030002078C00622D52046FFF7CFFA1EE0002E0A
:1010400004DBB34502DD01A8805D00E03020D4E977
:1010500001219047206A401C2062761CAAF1010001
:101060005FEA000A0AD100F01DFAC0680168405C1E
:10107000D4E901219047206A401C2062281EA5F176
:101080000105DCDC07E0D4E9012118F8010B9047E9
:10109000206A401C2062381EA7F10107F3DC2046BD
:1010A000FFF7B1FA032011B041E600002DE9F04F3F
:1010B00004460D46D21D22F0070089B0D0E9009702
:1010C000484639460AF08CFC0246F80F01D02D2321
:1010D00007E02068810701D52B2302E0202101EAE7
:1010E000C0038DF820300BB1012000E00020032A5E
:1010F000824601D0072A04DB2946204600F0D6F9B3
:101100003FE12078800601D40D2500E0E569C7F3B2
:101110000A560D2D49DA00214FEA175B08464FF0B9
:101120000000002F00F4400007DA00EB80004FF4CD
:10113000400100EBD07001EA60008115012901DD5A
:101140004FF0FF3100224FEA850CBCF1180F06D397
:101150001346ACF118004FF08052C24003E04FF448
:10116000801323FA0CF30CF10C0CBCF1200F04D308
:10117000ACF1200C09FA0CF001E007FA0CF00029A0
:101180004FF0004801DD18B90FE00ED140450CD3F7
:1011900019EB02095F4121B9404502D19F4329EA79
:1011A0000209BBEB175F00D0761C2088000502D532
:1011B0007B48784402E07A487844193808AA3023FA
:1011C00002F80A30037C0AF10101002E0AF1020A3A
:1011D00053546A4602DC4FF0300101E04FF0310118
:1011E0004FF001088DF8001002D0A6F2FF3603E0A0
:1011F00059EA470100D06B4E002D02DC2178090727
:1012000004D54FF002082E218DF80110C4460021AC
:101210000BE0C7F303433F01C35C491C6D1E02F89A
:101220000830052908F1010801DA002DF1DC002160
:101230000CE000EB1973491C1B786D1E082902F89D
:1012400008304FEA091908F1010801DA002DF0DC35
:1012500021688B0602D516E0A8F10108E04505DDFE
:1012600002EB080313F8013C302BF5D0B8F1000F66
:1012700009DD02EB080313F8013C2E2B03D109070B
:1012800001D4A8F10108002D05DD3E2102F8081067
:101290006D1E08F10108407C002E02F8080008F1DC
:1012A000010804DA2D20764202F8080002E02B2023
:1012B00002F808000A214FF47A70864208F101080A
:1012C0000BDB96FBF0F3303302F8083096FBF0F3BB
:1012D00008F1010800FB136601E0642E0CDB6420BA
:1012E00096FBF0F3303302F8083096FBF0F308F188
:1012F000010800FB136601E00A2E06DB96FBF1F005
:10130000303002F8080008F1010896FBF1F001FB0B
:101310001060303002F80800A16908F1010808EBFC
:10132000050202EB0A00081AA0612078C00602D468
:101330002046FFF752F9216A08AE01EB0A0020624D
:1013400004E0D4E9012116F8010B9047BAF1010A33
:10135000F7D22078C00602D52046FFF73EF96E4648
:1013600009E016F8010B3E280FD0D4E9012190477F
:10137000206A401C2062B8F10108F2D22046FFF733
:1013800042F909B00320BDE8F08F206A28442062AA
:1013900003E0D4E90121302090476D1EEBD3F8E73C
:1013A0009EB0000002FCFFFF10B5436913B1AFF31C
:1013B000008001E0FFF74AF9012010BD127800F12A
:1013C00024010A7000224A700122EDE711684FF0F3
:1013D000FF32E9E710B5436913B1AFF3008001E0D4
:1013E000FFF7D4F9012010BD128800F12401828496
:1013F0000022C2840122EDE711684FF0FF32E9E7D5
:1014000070B516460C46054600F044F8036893F89C
:101410000101012806D0FF2C0FD8185D68B101200A
:101420002C7070BDD3F807013246214603F2071332
:1014300003442846BDE8704018474FF0FF3070BDA8
:1014400000487047DC0800247546FFF7F9FFAE46F8
:1014500005006946534620F00700854618B020B5C0
:10146000FEF7CEFFBDE820404FF000064FF000072A
:101470004FF000084FF0000B21F00701AC46ACE83C
:10148000C009ACE8C009ACE8C009ACE8C0098D46A9
:101490007047000010B500F005F8001D10BD00BF3A
:1014A000E1AC000000487047FC0800242DE9F04141
:1014B0001F46044603260168072A01F4006004DB86
:1014C00008B116A505E016A503E008B115A500E0D2
:1014D00015A521F010002060A069C01EA0610FB109
:1014E000401EA0612046FFF778F84FB1D4E90121F2
:1014F00038469047206A401C2062C01C206206E0EB
:10150000206AFAE7D4E9012115F8010B9047761E0D
:10151000F8D22046FFF777F8BDE8F0814E414E0043
:101520006E616E00494E4600696E66002DE9F04717
:10153000814616468AB0354878440DC88DE80D00BE
:1015400032487844801C03AC0DC884E80D0041F695
:101550009B300844372190FBF1F290FBF1F5A5F1A7
:10156000800501FB12041B3C02D56442012000E00F
:101570000020DFF898A080460027FA44AAF1BE0AAE
:101580000EE0E0070AD03246684607EB4701012328
:101590000AEB810100F012FB8DE8070064107F1C4C
:1015A000002CEED1194F7F44AE3F19E0E80715D06B
:1015B00007EB04100DF1180A90E80E008AE80E00FF
:1015C000C068F04201D1981908903246012306A95B
:1015D00003A800F0F3FA03AB83E807006D10641C66
:1015E000002DE3D14FF0010332466946B8F1000FF8
:1015F00003A802D000F0CDFA01E000F0DFFAC9E95B
:101600000001C9F808200AB0BDE8F087A8AD0000C5
:1016100010B50446AFF300802046BDE81040FEF749
:10162000DABE00004FF0013C50F8042B51F8043BA7
:101630009A4215D1A2EB0C03934313EACC130BD1BE
:1016400050F8042B51F8043B9A4209D1A2EB0C0349
:10165000934313EACC13E7D04FF00000704700BF6C
:10166000D01A01BAB1FA81F101F0180122FA01F0A1
:10167000CB40C1F12001DBB2C0B2C01A2CFA01F399
:10168000D11A914311EAC311E6D1704701491820DC
:10169000ABBEFEE72600020070475FEA400C08BFC1
:1016A00091F0000F4FEA8C234FEAC12243EA5151D7
:1016B0004FEA1C5018BF00F5F0404FEA300018BF49
:1016C00041F000415FEA6C5C00F02980BCF1FF3F13
:1016D00008BF40F080407047130C06BF12044FF063
:1016E000100C4FF0000C130E04BF12020CF1080C8A
:1016F000130F04BF12010CF1040C930F04BF9200EE
:101700000CF1020CD30F04BF52000CF1010C114676
:101710004FF00002A0F11F00A0EB0C00704711F089
:10172000004F08BF704731F000413FF4D5AF0B0CBC
:1017300006BF09044FF0100C4FF0000C0B0E04BF55
:1017400009020CF1080C0B0F04BF09010CF1040C89
:101750008B0F04BF89000CF1020CCB0F04BF4900B2
:101760000CF1010CCCF12003A0EB0C0022FA03F3E6
:1017700002FA0CF241EA030100F10100704720F087
:101780007F4C80EA030023F07F47ACEB070303F5AF
:101790007C5300F0004003F1FF032DE980494FEA3C
:1017A000154B09B44FEA144325EA0B4E24EA0348CB
:1017B0000FF2042606EB132749083E785FEA32024F
:1017C00003FB0667C7F5000707FB06F64FEA543729
:1017D0004FEAD64606F1020607FB066CCCF1005C28
:1017E0004FEA1C472CEA074C07FB06F40CFB06F5F6
:1017F00004EB15464FEA961634BF00204FF0004028
:101800004FEAD13706FB07FC4FEA1C4C0CFB0BF7E9
:10181000D21B03FB0CF761EB07010CFB0EF7B0EBDF
:10182000074072EB17420CFB08F734BFA2EB0742EC
:10183000B2EB074261EB17414FEA0C444FEA9107C4
:1018400006FB07FC4FEA1C4C0CFB0BF7B0EBC74048
:1018500072EB573203FB0CF734BFA2EBC742B2EB7B
:10186000C74261EB57310CFB0EF7B0EBC70072EBD0
:1018700057720CFB08F734BFA2EBC702B2EBC702EA
:1018800061EB5771039F4FEA816141EA921104EBCA
:10189000CC044FEAD1374FEA826206FB07FC42EAEA
:1018A00090124FEA80604FEA1C4C0CFB0BF7D21BE6
:1018B00003FB0CF761EB07010CFB0EF7B0EB0740E5
:1018C00072EB17420CFB08F734BFA2EB0742B2EBF6
:1018D000074261EB17414FEA8C554FEA910704EB41
:1018E0009C2406FB07FC4FEA1C4C0CFB0BF7B0EBEF
:1018F000C74072EB573203FB0CF734BFA2EBC74271
:10190000B2EBC74261EB57310CFB0EF7B0EBC700EF
:1019100072EB57720CFB08F734BFA2EBC702B2EBB5
:10192000C70261EB577115EB4C254FEA816141EA23
:1019300092114FEA82624FEAD13742EA901206FBD7
:1019400007FC44F100044FEA80604FEA1C4C0CFB9A
:101950000BF7D21B03FB0CF761EB07010CFB0EF737
:10196000B0EB074072EB17420CFB08F734BFA2EB59
:101970000742B2EB074261EB174115EB1C154FEA2A
:10198000813141EA92414FEA823242EA90424FEA83
:1019900080304FEA0C7644F1000448EA03434EEAF3
:1019A0000B484FF0000EB2EB080C71EB030724BF9D
:1019B000624639464EEB0E0E4FF0000B00185241B6
:1019C00049414BEB0B0BB2EB080C71EB03077BF1BE
:1019D000000B24BF624639464EEB0E0E4FF0000B53
:1019E0000018524149414BEB0B0BB2EB080C71EB69
:1019F00003077BF1000B24BF624639464EEB0E0E07
:101A000051EA020718BF46F0010616EB0E7655F1B3
:101A1000000254F1000103D5BDE88901BDE800884A
:101A2000BDE88901BDE80048B619524141EB01010A
:101A3000A3F10103704780807F7E7D7C7B7A79787B
:101A4000777676757473727171706F6E6E6D6C6C83
:101A50006B6A6A6968686766666564646363626125
:101A60006160605F5F5E5E5D5D5C5C5B5B5A5A59A6
:101A70005958585757565655555554545353525212
:101A80005251515050504F4F4F4E4E4D4D4D4C4C6A
:101A90004C4B4B4B4A4A4A494949484848474747B3
:101AA00047464646454545444444444343434342F0
:101AB000424242414141002B9C4630D477002BD01A
:101AC0001CB54FEA370703B44FF010004FF0100178
:101AD000BAF1000F06D0BCF1000FDCBF40F00800E7
:101AE00040F008014FF000000FBCBDE810400BF1C2
:101AF000010BBBF1010F08BF5FEA170722BF12F10C
:101B0000010211F101014FF0004143F1000300F027
:101B1000004043EA00007047F9D35708D0E746EA8F
:101B2000064613F1400F4FEA16461FDD13F1200F52
:101B3000DFBF16430A46002120335B42BED0C3F10B
:101B4000200746EA064602FA07F74FEA164646EA33
:101B50000706C3F1200722FA03F201FA07F721FA78
:101B600003F14FF0000342EA0702A7E746EA020644
:101B700046EA06464FEA164646EA0106BCBF46EA72
:101B80000646360C4FF000034FF000024FF0000104
:101B900094E72DE9804C9A46934670B491E838005A
:101BA00007C831EA400C48BF34EA430C03D5FFF7BD
:101BB000E6FDFFF780FFF0BCBDE8008C2DE9804C0E
:101BC0009A46934670B491E8380007C810F0804FE9
:101BD00008BF13F0804F03D100F005F8FFF76BFF4B
:101BE000F0BCBDE8008C20F07F4780EA030023F0C2
:101BF0007F4C07EB0C03A3F57C5300F00040A3F1EE
:101C0000FE0392F0000F00F0B38095F0000F00F09B
:101C100077802DE901494FEA11404FEA144621EA45
:101C2000004800FB06FC24EA064708FB06F607FB13
:101C300008F800FB07F718EB06484CEB164C4FEA88
:101C4000124B18EB07484FEA15464CEB174022EAB7
:101C50000B4E0BFB06FC25EA06470EFB06F607FBC0
:101C60000EFE0BFB07F71EEB064E4CEB164C4FF02F
:101C700000061EEB074E4CEB174B18EB0B0840F120
:101C8000000018EB0E0B58EB000840F100008F1A13
:101C90004FF000013CBFC943661B14BFB5EB040CF9
:101CA00000213CBFC943F61B4FEA17444EEA8E0E93
:101CB00027EA04454FEA1C4704FB07622CEA074C5D
:101CC00005FB07F70CFB05F604FB0CFC16EB0746BF
:101CD00042EB174216EB0C4642EB1C421BEB06068E
:101CE00058EB0202414146EA9E0601D5BDE8018952
:101CF000B619524141EB0101A3F10103BDE801898D
:101D00004FEA14454FEA114724EA054621EA074CF9
:101D100005FB07F406FB07F70CFB06F105FB0CFCC3
:101D200011EB074144EB17444FEA124711EB0C410A
:101D300044EB1C4422EA074C05FB07F206FB07F7BD
:101D40000CFB06F605FB0CFC16EB074642EB1742B4
:101D500016EB0C4642EB1C456A1854F1000148BFD3
:101D60007047B619524141EB0101A3F101037047DD
:101D700095F0000F37D04FEA11424FEA144721EA9D
:101D8000024624EA074C02FB07F106FB07F70CFBAF
:101D900006F402FB0CFC14EB074441EB17414FEA3D
:101DA000154714EB0C4441EB1C4125EA074C02FBA0
:101DB00007F506FB07F70CFB06F602FB0CFC16EB1F
:101DC000074645EB174516EB0C4645EB1C4212192E
:101DD00051F1000148BF7047B619524141EB010172
:101DE000A3F1010370474FEA14454FEA114724EA73
:101DF000054621EA074C05FB07F106FB07F70CFB3C
:101E000006F24FF0000605FB0CFC12EB074241EB1B
:101E1000174112EB0C4251EB1C4148BF704792181E
:101E200041EB0101A3F101037047000070B50446C6
:101E30004F492068884203D04E492068884208D123
:101E40004D48006800F4403008B1012009E000204E
:101E500007E04A48006800F4403008B1012000E083
:101E60000020B8B105F08CFB05466068B0F5803FF6
:101E700006D0B0F5003F04D0B0F5403F08D105E0F2
:101E800000BF6068000CB5FBF0F502E0AD0800E0B3
:101E900000BF2BE04FF40020002103F0D5FE0546E3
:101EA0006068C0F31101F9B980140C281CD2DFE876
:101EB00000F01B060708090A0B111315171900BFBC
:101EC00000BF00BF00BF00BF6068800C4000B5FBD2
:101ED000F0F50AE02D0908E06D0906E0AD0904E01F
:101EE000ED0902E02D0A00E000BF00BF02F076FF1E
:101EF00041F20301884210D82148854206D9206862
:101F0000806840F48070216888602FE020688068D5
:101F100020F480702168886028E06D0819488542A7
:101F200006D82068806820F44070216888601DE031
:101F30001548854208D82068806820F4407040F435
:101F400080702168886011E01048854208D82068B8
:101F5000806820F4407040F400702168886005E0DB
:101F60002068806840F440702168886070BD00007F
:101F7000002002400021024008230240086302586A
:101F8000002D3101105E5F0020BCBE0040787D0155
:101F900000BFFEE710B5024801F0F6FB10BD0000DF
:101FA000CC0700240146374A0868904249D0354A98
:101FB00018320868904244D0324A30320868904261
:101FC0003FD0304A4832086890423AD02D4A6032B9
:101FD0000868904235D02B4A78320868904230D059
:101FE000284A9032086890422BD0264AA8320868C6
:101FF000904226D0244A0868904222D0224A1832C1
:10200000086890421DD0204A30320868904218D0AB
:102010001D4A48320868904213D01B4A6032086853
:1020200090420ED0184A78320868904209D0164A79
:1020300090320868904204D0134AA832086890424F
:1020400001D1012000E00020B0B10A78103A182335
:10205000B2FBF3F000F007020C4B9A5CCA65032850
:1020600005D90A686FF30902121D8A6503E00A6840
:102070006FF309028A6503E0086820F0FF008865B5
:10208000886D70471000024010040240BEC1000875
:1020900010B502682B4C0368A34222D0294C14349B
:1020A0000368A3421DD0274C28340368A34218D0EC
:1020B000244C3C340368A34213D0224C50340368B0
:1020C000A3420ED01F4C64340368A34209D01D4CB8
:1020D00078340368A34204D01A4C8C340368A342BA
:1020E00001D1012300E000238BB10378083B1424C5
:1020F000B3FBF4F1144B03EB81030366124B803303
:10210000436601F01F040123A340836618E00378AF
:10211000103B1824B3FBF4F10C4B9A4204D80B4B40
:10212000A83B9A4200D30831094B03EB81030366B5
:10213000074B8033436601F01F040123A3408366ED
:1021400010BD00000854025800580258B80402405C
:10215000000802400179A9B3082940D8204B026841
:102160009A4222D01E4B143302689A421DD01C4B57
:10217000283302689A4218D0194B3C3302689A42BD
:1021800013D0174B503302689A420ED0144B64336D
:1021900002689A4209D0124B783302689A4204D0FE
:1021A0000F4B8C3302689A4201D1012200E00022D9
:1021B0004AB14A1E0B4B03EB8202C266094A403207
:1021C000026708E00BE04A1E074B03EB8202C2667F
:1021D000054A403202674A1E012393404367704715
:1021E00008540258005902580009024001460020D4
:1021F0008A69D2B98A6A32B1012A0DD0022A03D083
:10220000032A10D10EE000BFCA6A02F08072B2F158
:10221000807F00D1012007E0CA6AB2F1C07F00D1FF
:10222000012001E000E000BF36E08A69B2F5005FFE
:102230001BD18A6A32B1012A07D0022A03D0032AAD
:1022400011D10AE000BF01200EE0CA6A02F08072DC
:10225000B2F1807F00D1012006E0CA6AB2F1C07FEE
:1022600000D1012000E000BF16E08A6A32B1012AE5
:1022700005D0022A04D0032A0CD103E000BF00BF1E
:10228000012008E0CA6A02F08072B2F1807F00D1BA
:10229000012000E000BF00BF70470000F0B5856D71
:1022A000846D984F0668BE4270D0964F1837066806
:1022B000BE426BD0934F30370668BE4266D0914F16
:1022C00048370668BE4261D08E4F60370668BE420E
:1022D0005CD08C4F78370668BE4257D0894F903714
:1022E0000668BE4252D0874FA8370668BE424DD01E
:1022F000854F0668BE4249D0834F18370668BE42F4
:1023000044D0814F30370668BE423FD07E4F4837B9
:102310000668BE423AD07C4F60370668BE4235D070
:10232000794F78370668BE4230D0774F90370668CD
:10233000BE422BD0744FA8370668BE4226D0734FDA
:102340000668BE4222D0714F14370668BE421DD0C7
:102350006E4F28370668BE4218D06C4F3C3706686F
:10236000BE4213D0694F50370668BE420ED0674F49
:1023700064370668BE4209D0644F78370668BE42AB
:1023800004D0624F8C370668BE4201D1012600E0BE
:1023900000263EB1D0E919767E60C66E16B1D0E94E
:1023A0001C767E60574F0668BE4249D0554F18379D
:1023B0000668BE4244D0534F30370668BE423FD015
:1023C000504F48370668BE423AD04E4F60370668D5
:1023D000BE4235D04B4F78370668BE4230D0494FA9
:1023E00090370668BE422BD0464FA8370668BE42DB
:1023F00026D0454F0668BE4222D0434F18370668A4
:10240000BE421DD0404F30370668BE4218D03E4F06
:1024100048370668BE4213D03B4F60370668BE425D
:102420000ED0394F78370668BE4209D0364F903704
:102430000668BE4204D0344FA8370668BE4201D1B8
:10244000012600E00026DEB190F85C6006F01F0770
:102450003F26BE40AE600668366826F480260768D0
:102460003E60066873608668402E04D10668B260DC
:102470000668F16044E00668B1600668F2603FE01B
:10248000224F0668BE4222D0204F14370668BE4253
:102490001DD01E4F28370668BE4218D01B4F3C3750
:1024A0000668BE4213D0194F50370668BE420ED0A0
:1024B000164F64370668BE4209D0144F7837066855
:1024C000BE4204D0114F8C370668BE4201D10126AE
:1024D00000E00026A6B190F85C6006F01F07012618
:1024E000BE406660066873608668402E04D1066848
:1024F000B2600668F16003E00668B1600668F260E9
:10250000F0BD0000100002401004024008540258C0
:10251000704710B5012002F04FFB10BD72B600BF2E
:10252000FEE700002DE9F04399B004460E464FF057
:102530000008306800B100BF00BF94F850000128C7
:1025400003D1022019B0BDE8F083012084F85000C7
:1025500000BF00201590169046492068884202D19D
:102560004548009001E000200090009850B9606D4F
:1025700040F02000606500BF002084F8500000BFDC
:102580000120DFE7009807F0B1FA0746206807F05E
:10259000ADFA002861D1002F5FD13649206888420A
:1025A00003D035492068884201D1344800E03448DE
:1025B0000546306858B3A86820F440407168084365
:1025C000A8602C492068884203D02B4920688842A3
:1025D00001D12A4800E02A482849884209D12548E3
:1025E00007F075FA8146244807F071FA49EA0000BD
:1025F00002E0244807F06BFA70BBB168306808430A
:10260000A96840F61F7291430843A8602BE0A868B0
:1026100020F44040A86017492068884203D016493A
:102620002068884201D1154800E0154813498842C6
:1026300009D1104807F04BFA81460F4807F047FAD6
:1026400049EA000002E00F4807F041FA20B9A86803
:1026500040F61F718843A86005E0606D40F02000DF
:1026600060654FF0010800BF002084F8500000BFF3
:10267000404667E70020024000210240002302405C
:1026800000630258006002582DE9F84F04460D46D9
:102690004FF0000A0020009094F83800012800D183
:1026A00000E000BFFA49E868884200D00EE0F9492E
:1026B0002068884200D100BFF7492068884200D1D5
:1026C00000BFF6492068884200D100BF00BF94F8DF
:1026D0005000012802D10220BDE8F88F012084F8C3
:1026E000500000BF206807F0FCF900287ED1286860
:1026F00000F00040A8B92068C1692868C0F3130041
:1027000018B92868C0F3846004E0286890FAA0F043
:10271000B0FA80F000F01F020120904001432068D1
:10272000C1612168D5E9002001F1300CC0F3012B13
:102730000CEB8B03D3F800C000F01F0E4FF01F0B03
:102740000BFA0EFB2CEA0B0C00F01F0BC2F3846E8D
:102750000EFA0BFE4CEA0E0CC3F800C000BF206856
:1027600007F0BFF98146206807F0A7F98046B9F164
:10277000000F6FD1B8F1000FFBD1AA68296820685B
:1027800007F0B9F9C648006800F07040B0F1805F0A
:1027900007D168692168C968C1F38201490088408E
:1027A00014E02068C06800F0100038B9686921683A
:1027B000C968C1F382014900884007E0686921685F
:1027C000C96801F010018908490088400746286956
:1027D000042840D020682A68296900F1600C0CEBBD
:1027E0008103D3F800C00CF0004C00E0D0E102F00F
:1027F000F84B4BEA070B4CEA0B0CC3F800C000BFC8
:1028000020686A7E2969012A01D1D20700E00022EE
:10281000134600F1600C0CEB8102D2F800C02CF0E2
:10282000004C4CEA030CC2F800C000BF20682B7EAD
:102830002969012B01D1DB0200E000231A4603695C
:1028400023F4F04301F01F0C02FA0CFC43EA0C03E2
:10285000036100BF37E02068006E00F0F84029787F
:10286000B0EB816F05D12068006E20F00040216838
:1028700008662068406E00F0F8402978B0EB816F60
:1028800005D12068406E20F000402168486620682D
:10289000806E00F0F8402978B0EB816F05D1206898
:1028A000806E20F00040216888662068C06E00F0CD
:1028B000F8402978B0EB816F05D12068C06E20F018
:1028C00000402168C866206807F0FCF8002872D133
:1028D0002068EA682968D0F8C030C1F3130C23EAF5
:1028E0000C0302F0180BDFF8BCC12CFA0BFC0CEA4D
:1028F000010C43EA0C03C0F8C03000BF6449E8682B
:1029000088427DD12B68C3F313031BB92B68C3F333
:10291000846304E02B6893FAA3F3B3FA83F35B1C9C
:1029200003F01F03092B3ED82B68C3F313031BB915
:102930002B68C3F3846304E02B6893FAA3F3B3FA20
:1029400083F35B1C03F01F034FF0010C0CFA03FC34
:102950002B68C3F313031BB92B68C3F3846304E030
:102960002B6893FAA3F3B3FA83F35B1C03F01F0302
:102970004CEA836C2B68C3F313031BB92B68C3F3B6
:10298000846304E02B6893FAA3F3B3FA83F35B1C2C
:1029900003F01F0303EB43034FF0000B4BEA035319
:1029A0004CEA030341E02B68C3F3130323B92B68FC
:1029B000C3F3846305E0A9E02B6893FAA3F3B3FAA9
:1029C00083F35B1C03F01F034FF0010C0CFA03FCB4
:1029D0002B68C3F313031BB92B68C3F3846304E0B0
:1029E0002B6893FAA3F3B3FA83F35B1C03F01F0382
:1029F0004CEA836C2B68C3F313032BB92B6800E0FC
:102A000018E0C3F3846304E02B6893FAA3F3B3FAEA
:102A100083F35B1C03F01F030A3B03EB43034FF0FC
:102A2000007B4BEA03534CEA03031946AA6820686B
:102A300007F061F8286800F00040002866D0154AC9
:102A40002168914203D0144A2168914201D116496C
:102A500000E016490846816801F0E07600BF0D49A4
:102A60002068884203D00C492068884201D10E4872
:102A700000E00E480C4988421AD1064807F022F8B7
:102A80008346054807F01EF84BEA000013E00000FB
:102A90000000FF4700200240002102400060025871
:102AA0000010005CFFFF0F0000230240006302588B
:102AB0003E4807F007F8E8BB3D492868884226D120
:102AC00006F4000018BB39492068884266D1394BAA
:102AD00022689A4203D0384B22689A4201D1374A81
:102AE00000E0374A104646F4000107F018F8354870
:102AF00000683549B0FBF1F0401C4000009002E056
:102B00000098401E009000980028F9D146E02F4917
:102B10002868884219D106F08070B0B9234920682E
:102B200088423BD1234B22689A4205D0224B22682F
:102B30009A4200E025E001D1204A00E0204A1046F8
:102B400046F0807106F0EBFF28E0214928688842B2
:102B500024D106F4800008BB1449206888421DD1A6
:102B6000144B22689A4203D0134B22689A4201D137
:102B7000124A00E0124A104646F4800106F0CFFFE8
:102B80000CE0606D40F0200060654FF0010A05E048
:102B9000606D40F0200060654FF0010A00BF00202A
:102BA00084F8500000BF504696E5000000600258CF
:102BB000000084CB0020024000210240002302409C
:102BC000006302580C000024400D0300000052C7AF
:102BD0000000B8CF2DE9F84F04464FF0000900205F
:102BE000009014B90120BDE8F88FE06818B1207F8B
:102BF000012800D100BF606D30B9204600F030F9E7
:102C00000020A06584F8500020688168C1F34071FD
:102C100031B120688168874A1140816000BF00BFE0
:102C2000206806F059FFA8B920688168824A1140DF
:102C300041F08051816000BF804800688049B0FB4E
:102C4000F1F0401C009002E00098401E00900098B7
:102C50000028F9D1206806F03FFF48B9606D40F0C8
:102C600010006065A06D40F00100A0654FF0010903
:102C7000206806F036FF0646606D00F01000002860
:102C80007ED1002EFCD1606D20F4807040F00200F7
:102C90006065206806F016FF78BB6A4920688842A4
:102CA00003D069492068884201D1684800E068483B
:102CB0006649884209D1634806F004FF82466248AB
:102CC00006F000FF4AEA000002E0624806F0FAFE61
:102CD00098B95C4B22689A4203D05B4B22689A42B7
:102CE00001D15A4A00E05A4A10466168826822F4CB
:102CF0007C120A43826000BF00BF02F06FF841F20D
:102D0000030188420ED9A06810280BD1607D216B89
:102D100041EA4030A168084340F00C01207F41EABD
:102D2000004508E0607D216B41EA4030A16808431E
:102D3000217F40EA0145207F012803D1208C401EDD
:102D400045EA4045606A28B1A08C00F47870A16A19
:102D5000084305432068C0683F490840284321686C
:102D6000C860206806F0BDFE8046206806F0A5FE1B
:102D70000746B8F1000F3BD1D7BB207DE16A00E0E8
:102D800050E041EA80352068C06844F2030188437E
:102D900028432168C86094F83800012817D1606A78
:102DA00008B1A06A00B900BFA08F401E012141EA0E
:102DB0000041206C0843616C0843A16C0843216802
:102DC0000969264A114008432168086105E0206826
:102DD000006920F00100216808612068006920F086
:102DE0007040616B0843216808612046FFF71EF8B8
:102DF000E068012809D12068006B20F00F00A1696C
:102E0000491E08432168086305E02068006B20F034
:102E10000F0021680863606D20F0020040F001009F
:102E2000606505E0606D40F0100060654FF00109DD
:102E30004846D8E6C0FFFF5FC0FFFF7F0C000024BC
:102E4000400D030000200240002102400023024008
:102E5000006302580060025803C0F0FF1EF800FC37
:102E600010B5B8B00446142132A8FDF78CFBC02180
:102E700002A8FDF788FB24492068884242D14FF41C
:102E800000210020CDE902100120049012210591BB
:102E90000221069107910891C021099120210A91F0
:102EA0004FF4C0510B9100202B9002A803F024FB9B
:102EB00008B1FFF733FB00BF1448006840F0200062
:102EC000124908600846006800F02000019000BF29
:102ED00000BF00BF0D480830006840F004000B49F7
:102EE000083108600846006800F00400019000BF47
:102EF00000BF0320329033900020349032A9044860
:102F000001F068FE38B010BD00200240D8440258DD
:102F1000000802582DE9F041044601F065FF8046A3
:102F200014B90120BDE8F08194F83500022808D0DA
:102F30008020606500BF002084F8340000BF0120BD
:102F4000F0E7FE492068884249D0FC4918312068E2
:102F5000884244D0F9493031206888423FD0F7494F
:102F60004831206888423AD0F4496031206888426C
:102F700035D0F24978312068884230D0EF4990311D
:102F8000206888422BD0ED49A8312068884226D09D
:102F9000EB492068884222D0E949183120688842EC
:102FA0001DD0E74930312068884218D0E4494831C3
:102FB0002068884213D0E2496031206888420ED0F0
:102FC000DF4978312068884209D0DD499031206896
:102FD000884204D0DA49A8312068884201D1012012
:102FE00000E0002068B12068006820F01E00216821
:102FF00008602068406920F08000216848612568E9
:1030000006E02068006820F00E002168086025684E
:10301000CA492068884270D0C8491831206888425F
:103020006BD0C64930312068884266D0C3494831E8
:103030002068884261D0C1496031206888425CD0F4
:10304000BE4978312068884257D0BC499031206809
:10305000884252D0B949A831206888424DD0B84939
:103060002068884249D0B64918312068884244D047
:10307000B3493031206888423FD0B1494831206897
:1030800088423AD0AE4960312068884235D0AC4998
:1030900078312068884230D0A94990312068884230
:1030A0002BD0A749A8312068884226D0A54920689E
:1030B000884222D0A3491431206888421DD0A149FA
:1030C00028312068884218D09E493C3120688842C7
:1030D00013D09C495031206888420ED09949643100
:1030E0002068884209D0974978312068884204D006
:1030F00094498C312068884201D1012000E00020F1
:1031000028B1206E006820F48070216E08608B4921
:103110002068884249D0894918312068884244D0C3
:1031200086493031206888423FD084494831206840
:1031300088423AD0814960312068884235D07F4941
:1031400078312068884230D07C49903120688842AC
:103150002BD07A49A8312068884226D07849206847
:10316000884222D076491831206888421DD074499F
:1031700030312068884218D071494831206888422F
:1031800013D06F496031206888420ED06C49783185
:103190002068884209D06A4990312068884204D06A
:1031A0006749A8312068884206D12068006820F06D
:1031B00001002168086005E02068006820F0010037
:1031C0002168086011E001F00FFEA0EB080005285F
:1031D0000BD920206065032084F8350000BF002053
:1031E00084F8340000BF01209CE6286800F001004C
:1031F0000028E8D151492068884249D04F49183108
:103200002068884244D04D493031206888423FD000
:103210004A494831206888423AD04849603120689C
:10322000884235D0454978312068884230D04349BA
:103230009031206888422BD04049A83120688842CC
:1032400026D03F492068884222D03D491831206865
:1032500088421DD03A4930312068884218D0384918
:1032600048312068884213D035496031206888424F
:103270000ED0334978312068884209D030499031E6
:103280002068884204D02E49A8312068884201D1A4
:10329000012000E0002040B1A66D94F85C0000F031
:1032A0001F013F208840B06007E0A76D94F85C00E4
:1032B00000F01F0101208840786020492068884282
:1032C00076D01E4918312068884271D01B493031B0
:1032D000206888426CD0194948312068884267D0FC
:1032E000164960312068884262D0144978312068DC
:1032F00088425DD0114990312068884258D00F49EA
:10330000A8312068884253D00D49206888424FD0A8
:103310000B491831206888424AD009493031206869
:10332000884245D0064948312068884240D0044947
:103330006031206888423BD0014905E0100002401E
:1033400010040240085402587831206888422FD077
:103350002549206888422BD02349183120688842AB
:1033600026D022492068884222D020491431206882
:1033700088421DD01D4928312068884218D01B4939
:103380003C312068884213D0184950312068884267
:103390000ED0164964312068884209D0134978312B
:1033A0002068884204D011498C312068884201D1BC
:1033B000012000E0002068B1D4E919104860E06EF7
:1033C00040B1E06E006820F48070E16E0860D4E9DE
:1033D0001C104860012084F8350000BF002084F8EC
:1033E000340000BF00BF9DE5A0040240085402580D
:1033F00070B504460CB9012070BD94F83500022860
:1034000003D0802060650120F6E7DC49206888420F
:1034100049D0DA4918312068884244D0D749303140
:10342000206888423FD0D5494831206888423AD048
:10343000D24960312068884235D0D049783120683F
:10344000884230D0CD499031206888422BD0CB497A
:10345000A8312068884226D0C9492068884222D0F5
:10346000C7491831206888421DD0C54930312068CD
:10347000884218D0C24948312068884213D0C049D8
:103480006031206888420ED0BD497831206888427A
:1034900009D0BB4990312068884204D0B849A8318E
:1034A0002068884201D1012000E00020F0B3042010
:1034B00084F83500B149206888424BD0AF491831B3
:1034C0002068884246D0AD4930312068884241D0DA
:1034D000AA494831206888423CD0A8496031206818
:1034E000884237D0A54978312068884232D0A34934
:1034F0009031206888422DD0A049A83120688842A8
:1035000028D09F492068884224D09D4918312068DE
:1035100088421FD09A493031206888421AD0984991
:1035200048312068884215D0954900E020E060319C
:10353000206888420ED0924978312068884209D0AC
:103540008F4990312068884204D08D49A831206885
:10355000884206D12068006820F0010021680860D8
:1035600009E12068006820F001002168086002E19C
:103570002068006820F00E00216808607F492068FC
:10358000884249D07D4918312068884244D07B491F
:103590003031206888423FD07849483120688842DD
:1035A0003AD0764960312068884235D07349783105
:1035B0002068884230D071499031206888422BD0F1
:1035C0006E49A8312068884226D06D49206888421B
:1035D00022D06B491831206888421DD068493031AB
:1035E0002068884218D0664948312068884213D044
:1035F00063496031206888420ED061497831206883
:10360000884209D05E4990312068884204D05C49E4
:10361000A8312068884206D12068006820F00100A7
:103620002168086005E02068006820F0010021683A
:10363000086052492068884270D05049183120688B
:1036400088426BD04D4930312068884266D04B4962
:1036500048312068884261D04849603120688842FA
:103660005CD0464978312068884257D04349903130
:103670002068884252D04149A831206888424DD004
:103680003F492068884249D03D4918312068884226
:1036900044D03B493031206888423FD038494831D6
:1036A000206888423AD0364960312068884235D057
:1036B000334978312068884230D0314990312068D0
:1036C00088422BD02E49A8312068884226D02D4927
:1036D0002068884222D02B491431206888421DD0AE
:1036E000284928312068884218D026493C31206872
:1036F000884213D023495031206888420ED0214996
:1037000064312068884209D01E4978312068884297
:1037100004D01C498C312068884201D1012000E08E
:103720000020D8B1206E006820F48070216E0860FF
:10373000A56D94F85C0000F01F01012088406860CE
:10374000D4E919104860E06E40B1E06E006820F4E2
:103750008070E16E0860D4E91C104860012084F894
:10376000350000BF002084F8340000BF206D10B188
:103770002046216D884700203EE6000010000240F0
:1037800010040240085402582DE9F84F0446002066
:103790000090FE4800684FF41651B0FBF1FAA66D98
:1037A000D4F858803768D8F80090F94920688842E2
:1037B00049D0F74918312068884244D0F449303163
:1037C000206888423FD0F2494831206888423AD088
:1037D000EF4960312068884235D0ED497831206862
:1037E000884230D0EA499031206888422BD0E8499D
:1037F000A8312068884226D0E6492068884222D035
:10380000E4491831206888421DD0E24930312068EF
:10381000884218D0DF4948312068884213D0DD49FA
:103820006031206888420ED0DA49783120688842B9
:1038300009D0D84990312068884204D0D549A831B0
:103840002068884201D1012000E0002000287DD0BE
:1038500094F85C0000F01F010820884038400028E0
:1038600068D0CB492068884249D0C94918312068BE
:10387000884244D0C6493031206888423FD0C4498C
:103880004831206888423AD0C14960312068884276
:1038900035D0BF4978312068884230D0BC4990315A
:1038A000206888422BD0BA49A8312068884226D0A7
:1038B000B8492068884222D0B64918312068884229
:1038C0001DD0B44930312068884218D0B149483100
:1038D0002068884213D0AF496031206888420ED0FA
:1038E000AC4978312068884209D0AA4990312068D3
:1038F000884204D0A749A8312068884204D12068B2
:10390000006800F0040003E02068006800F0080090
:1039100080B12068006820F004002168086094F8F5
:103920005C0000F01F0108208840B060606D40F02E
:103930000100606594F85C0000F01F0101208840E0
:103940003840E8B392492068884200E0B7E24BD0A3
:103950008F4918312068884246D08D49303120681F
:10396000884241D08A494831206888423CD0884901
:1039700060312068884237D0854978312068884294
:1039800032D083499031206888422DD08049A831B7
:103990002068884228D07F492068884224D07D4909
:1039A0001831206888421FD07A4930312068884217
:1039B0001AD0784948312068884215D0754900E00E
:1039C00026E06031206888420ED072497831206844
:1039D000884209D06F4990312068884204D06D49EF
:1039E000A8312068884204D12068406900F0800036
:1039F00002E020680068002050B194F85C0000F0FC
:103A00001F0101208840B060606D40F002006065D9
:103A100094F85C0000F01F01042088403840E8B3AF
:103A20005B49206888424BD0594918312068884248
:103A300046D0574930312068884241D054494831F6
:103A4000206888423CD0524960312068884237D093
:103A50004F4978312068884232D04D4990312068F2
:103A600088422DD04A49A8312068884228D0494947
:103A70002068884224D047491831206888421FD0E6
:103A800044493031206888421AD042494831206880
:103A9000884215D03F496031206800E024E0884228
:103AA0000ED03C4978312068884209D0394990319C
:103AB0002068884204D03749A8312068884204D160
:103AC0002068006800F0020002E020680068002022
:103AD00050B194F85C0000F01F0104208840B060F1
:103AE000606D40F00400606594F85C0000F01F0118
:103AF000102088403840E8B325492068884251D0DA
:103B000023491831206888424CD02149303120683F
:103B1000884247D01E4948312068884242D01C491B
:103B20006031206888423DD0194978312068884248
:103B300038D0174990312068884233D01449A831D1
:103B4000206888422ED01349206888422AD0114923
:103B500018312068884225D00E49303120688842CB
:103B600020D00C494831206888421BD00949603177
:103B7000206800E04DE0884214D006497831206882
:103B800088420FD003499031206805E00C000024E2
:103B90001000024010040240884203D0FE49206811
:103BA000884204D12068006800F0080003E0206823
:103BB000006800F0040060B394F85C0000F01F019E
:103BC00010208840B0602068006800F4802080B138
:103BD0002068006800F4002028B9206CC8B1204695
:103BE000216C884715E0A06C98B12046A16C8847ED
:103BF0000FE02068006800F4807028B92068006831
:103C000020F0080021680860206C10B12046216C6B
:103C1000884794F85C0000F01F012020884038405D
:103C200000287DD0DD492068884249D0DB49183121
:103C30002068884244D0D9493031206888423FD03A
:103C4000D6494831206888423AD0D449603120684A
:103C5000884235D0D14978312068884230D0CF4968
:103C60009031206888422BD0CC49A8312068884206
:103C700026D0C949A8392068884221D0C649903940
:103C8000206888421CD0C44978392068884217D0FF
:103C9000C14960392068884212D0BF49483920683C
:103CA00088420DD0BC4930392068884208D0BA49D2
:103CB00018392068884203D0B7492068884204D167
:103CC0002068006800F0100003E02068006800F041
:103CD000020028B394F85C0000F01F012020884007
:103CE000B06094F8350004282DD12068006820F0D9
:103CF0001600216808602068406920F08000216873
:103D00004861206C08B9A06C28B12068006820F0D8
:103D100008002168086094F85C0000F01F0100E0D2
:103D20003FE03F208840B060012084F8350000BFAC
:103D3000002084F8340000BF206D10B12046216DB2
:103D40008847BDE8F88F2068006800F4802080B1C3
:103D50002068006800F4002028B9606C08B3204691
:103D6000616C88471DE0E06BD8B12046E16B884765
:103D700017E02068006800F4807068B92068006867
:103D800020F0100021680860012084F8350000BF91
:103D9000002084F8340000BFE06B10B12046E16BD6
:103DA0008847606D00287AD0606D00F00100E8B3AC
:103DB000042084F835007949206888424BD077493F
:103DC00018312068884246D07449303120688842D2
:103DD00041D072494831206888423CD06F496031F7
:103DE0002068884237D06D4978312068884232D0C7
:103DF0006A499031206888422DD06849A8312068EE
:103E0000884228D06449A8392068884223D0624972
:103E10009039206888421ED05F49783920688842EE
:103E200019D05D4960392068884200E040E012D036
:103E300059494839206888420DD05749303920689F
:103E4000884208D0544918392068884203D0524922
:103E50002068884206D12068006820F001002168AF
:103E6000086005E02068006820F001002168086013
:103E700000BF0098401C0090504500D905E0206824
:103E8000006800F001000028F3D100BF206800683E
:103E900000F0010020B1032084F8350003E00DE0BC
:103EA000012084F8350000BF002084F8340000BFF2
:103EB000E06C002802D02046E16C8847D9E13849FF
:103EC0002068884222D036491431206888421DD0AB
:103ED000334928312068884218D031493C31206864
:103EE000884213D02E495031206888420ED02C4988
:103EF00064312068884209D0294978312068884295
:103F000004D027498C312068884201D1012000E08B
:103F100000200028D2D02068056894F85C0000F0EA
:103F20001F010420884000EA0900D8B305F004000E
:103F3000C0B394F85C0000F01F0104208840C8F86A
:103F4000040005F4004080B105F4803030B9A06C65
:103F50000028B3D02046A16C88478AE1206C002855
:103F6000ACD02046216C884783E105F02000E8BBF7
:103F70000A492068884253D008491831206888428D
:103F80004ED0064930312068884249D00349483133
:103F90002068884244D006E0B80402401000024085
:103FA000085402584FE0B44960312068884237D045
:103FB000B14978312068884232D0AF4990312068C9
:103FC00088422DD0AC49A8312068884228D0AB491E
:103FD0002068884224D0A9491831206888421FD01F
:103FE000A6493031206888421AD000E025E0A34974
:103FF00048312068884213D0A04960312068884247
:104000000ED09E4978312068884209D09B49903172
:104010002068884204D09949A8312068884206D196
:104020002068006820F008002168086005E020682A
:10403000006820F0040021680860206C10B320465E
:10404000216C884715E194F85C0000F01F01022004
:10405000884000EA0900E8B305F00200D0B394F804
:104060005C0000F01F0102208840C8F8040005F43D
:10407000004070B105F4803028B9606C10B1204662
:10408000616C8847F5E0E06BF0B32046E16B884750
:10409000EFE005F02000C0BB7749206888424ED091
:1040A000754918312068884249D0734930312068F9
:1040B000884244D070494831206888423FD06E49D8
:1040C0006031206888423AD06B4978312068884254
:1040D00035D000E04EE068499031206888422ED00B
:1040E0006549A8312068884229D0644920688842FF
:1040F00025D0624918312068884220D05F4930318C
:10410000206888421BD001E06EE02DE05B49483119
:104110002068884213D059496031206888420ED007
:10412000564978312068884209D054499031206836
:10413000884204D05149A8312068884206D12068BD
:10414000006820F014002168086005E0206800681D
:1041500020F00A0021680860012084F8350000BFC3
:10416000002084F8340000BFE06BE8B32046E16B28
:1041700088477EE094F85C0000F01F01082088402A
:1041800000EA090080B305F0080068B33A492068E6
:1041900088424BD0384918312068884246D0364989
:1041A00030312068884241D0334948312068884204
:1041B0003CD0314960312068884237D02E4978316F
:1041C0002068884232D02C499031206888422DD016
:1041D0002949A8312068884228D028492068884287
:1041E00024D02649183100E043E0206888421DD0E1
:1041F000224930312068884218D02049483120684F
:10420000884213D01D496031206888420ED01B4976
:1042100078312068884209D0184990312068884256
:1042200004D01649A8312068884206D12068006869
:1042300020F01C002168086005E02068006820F07C
:104240000E002168086094F85C0000F01F01012056
:104250008840C8F804000120606584F8350000BF7C
:10426000002084F8340000BFE06C10B12046E16CFF
:10427000884700BF65E500001000024010040240BE
:104280002DE9F041044600F0AFFD804614B901204D
:10429000BDE8F081FE492068884249D0FC491831C8
:1042A0002068884244D0FA493031206888423FD0A3
:1042B000F7494831206888423AD0F5496031206892
:1042C000884235D0F24978312068884230D0F049B0
:1042D0009031206888422BD0ED49A831206888426F
:1042E00026D0EC492068884222D0EA49183120685B
:1042F00088421DD0E74930312068884218D0E5490E
:1043000048312068884213D0E249603120688842F1
:104310000ED0E04978312068884209D0DD499031DB
:104320002068884204D0DB49A8312068884201D146
:10433000012000E00020002873D0606A00B100BFB7
:10434000022084F8350000BF002084F8340000BF4C
:10435000CF492068884249D0CD4918312068884229
:1043600044D0CB493031206888423FD0C8494831D9
:10437000206888423AD0C64960312068884235D0EA
:10438000C34978312068884230D0C14990312068D3
:1043900088422BD0BE49A8312068884226D0BD492A
:1043A0002068884222D0BB491831206888421DD03D
:1043B000B84930312068884218D0B6494831206861
:1043C000884213D0B3496031206888420ED0B14989
:1043D00078312068884209D0AE49903120688842FF
:1043E00004D0AC49A8312068884206D12068006812
:1043F00020F001002168086005E02068006820F0D6
:104400000100216808600DE000F0EEFCA0EB080060
:10441000052807D920206065032084F83500012095
:1044200036E76AE02068006800F001000028EBD160
:104430002068056898480540D4E9020108432169CD
:10444000084361690843A1690843E1690843216A97
:1044500008430543606A042803D1D4E90B010843EB
:1044600005438E4800686FF30F00B0F1005F1DD365
:104470006068292802D360682E2811D960683F2817
:1044800002D3606842280BD96068472802D360686D
:10449000482805D960684F2804D36068522801D89D
:1044A000012000E0002008B145F480152068056077
:1044B0002068456925F00705606A0543606A04289D
:1044C0000DD1A06A0543E06A48B12046FDF78EFE93
:1044D00028B140206065012084F83500D8E62068C6
:1044E00045612046FDF75EFD064694F85C0000F04D
:1044F0001F013F208840B0609EE0694920688842E3
:1045000022D067491431206888421DD0644928317F
:104510002068884218D062493C312068884213D014
:104520005F495031206888420ED05D49643120686F
:10453000884209D05A4978312068884204D05849C5
:104540008C312068884201D1012000E00020E0B3D6
:1045500053492068884222D051491431206888424A
:104560001DD04F4928312068884218D04C493C3131
:104570002068884213D04A495031206888420ED0C2
:10458000474964312068884209D04549783120681C
:10459000884204D042498C312068884201D10120F0
:1045A00000E0002000B100BF022084F8350000BF09
:1045B000002084F8340000BF2068056839480540B1
:1045C000A068402802D1102106E02EE0A0688028D3
:1045D00001D1C10100E00021E06841EAD001206979
:1045E00041EAD001606941EAD001A06941EAD00105
:1045F000E06941EAD001206A41EA101005432068D1
:10460000056027492068401A1421B0FBF1F08000B2
:10461000E0652046FDF7C6FC074694F85C0000F014
:104620001F0101208840786006E04020606503207B
:1046300084F8350001202BE61549206888427FD098
:1046400013491831206888427AD0114930312068E6
:10465000884275D00E4948312068884270D00C4994
:104660006031206888426BD00949783120688842DF
:1046700066D0074990312068884261D00449A8314A
:10468000206888425CD003492068884258D00BE0FB
:1046900010000240100402403F8010FE0010005C39
:1046A000085402580F00FEFF3B4918312068884229
:1046B00046D0394930312068884241D036494831A6
:1046C000206888423CD0344960312068884237D025
:1046D000314978312068884232D02F4990312068A2
:1046E00088422DD02C49A8312068884228D02B49F7
:1046F0002068884224D029491431206888421FD07C
:1047000026492831206888421AD024493C31206843
:10471000884215D0214950312068884210D01F4965
:104720006431206888420BD01C4978312068884267
:1047300006D01A498C312068884200E000E001D19F
:10474000012000E0002000B32046FDF7A1FCA06896
:10475000802801D1002060602079216E0860D4E9B2
:1047600019104860606860B16068082809D8204660
:10477000FDF7F0FC0020E16E0860D4E91C104860F1
:1047800003E00020E066206760670020606501208C
:1047900084F8350000207BE51004024008540258DC
:1047A0002DE9F04104460D4616461F464FF000081D
:1047B00014B90120BDE8F08100BF94F8340001284D
:1047C00001D10220F6E7012084F8340000BF94F8FC
:1047D000350001287ED1022084F835000020606574
:1047E000E4492068884249D0E2491831206888426B
:1047F00044D0E0493031206888423FD0DD4948311B
:10480000206888423AD0DB4960312068884235D040
:10481000D84978312068884230D0D6499031206814
:1048200088422BD0D349A8312068884226D0D2496B
:104830002068884222D0D0491831206888421DD093
:10484000CD4930312068884218D0CB4948312068A2
:10485000884213D0C8496031206888420ED0C649CA
:1048600078312068884209D0C34990312068884255
:1048700004D0C149A8312068884206D12068006868
:1048800020F001002168086005E02068006820F041
:104890000100216808603B46324629462046FDF764
:1048A000FDFCB449206888424BD0B24918312068D9
:1048B000884246D0AF4930312068884241D0AD4966
:1048C0004831206888423CD0AA496031206888423B
:1048D00037D000E042E1A74978312068884230D0E3
:1048E000A4499031206888422BD0A249A831206881
:1048F000884226D0A0492068884222D09E4918319B
:10490000206888421DD09C4930312068884218D0E8
:10491000994948312068884213D09749603120680E
:1049200088420ED0944978312068884209D0924953
:1049300090312068884204D08F49A831206888428D
:1049400001D1012000E0002080B12068006820F043
:104950001E0040F0160021680860206CB0B120688D
:10496000006840F00800216808600FE020680068D7
:1049700020F00E0040F00A0021680860206C28B189
:104980002068006840F004002168086079492068C8
:10499000884270D077491831206888426BD07549B9
:1049A00030312068884266D0724948312068884298
:1049B00061D070496031206888425CD06D4978319F
:1049C0002068884257D06B4990312068884252D085
:1049D0006849A831206888424DD0674920688842DC
:1049E00049D0654918312068884244D06249303145
:1049F000206888423FD060494831206888423AD0D8
:104A00005D4960312068884235D05B497831206843
:104A1000884230D058499031206888422BD056497E
:104A2000A8312068884226D054492068884222D084
:104A300052491431206888421DD0504928312068DD
:104A4000884218D04D493C312068884213D04B49E8
:104A50005031206888420ED048496431206888422D
:104A600009D0464978312068884204D043498C31C6
:104A70002068884201D1012000E0002090B1206E22
:104A8000006800F4803028B1206E006840F4807027
:104A9000216E0860E06E28B1E06E006840F480701E
:104AA000E16E086033492068884249D031491831A5
:104AB0002068884244D02F493031206888423FD056
:104AC0002C494831206888423AD02A496031206810
:104AD000884235D0274978312068884230D025492E
:104AE0009031206888422BD02249A8312068884222
:104AF00026D021492068884222D01F4918312068D9
:104B000088421DD01C4930312068884218D01A498B
:104B100048312068884213D01749603120688842A4
:104B20000ED0154978312068884209D01249903159
:104B30002068884204D01049A8312068884206D1F4
:104B40002068006840F001002168086010E02068DB
:104B5000006840F001002168086009E04FF400603F
:104B6000606500BF002084F8340000BF4FF00108EA
:104B700040461FE61000024010040240085402584C
:104B800070B5044600F030F906462546681C10B1A1
:104B900004480078054400BF00F026F9801BA842B5
:104BA000FAD370BD08000024012802D10121014A76
:104BB000117070473D00002410B504460448006899
:104BC000204020B1024804602046FFF7EDFF10BDF1
:104BD00088000058F8B502460B4600216F4DD7E01B
:104BE00001278F401E6806EA0704002C72D01E7948
:104BF00006F00306012E04D01E7906F00306022EED
:104C000013D190684F000326BE40B0434F00DE68CA
:104C1000BE4030439060506801268E40B0431E79FC
:104C2000C6F300168E40304350601E7906F003062E
:104C3000032E09D0D0684F000326BE40B0434F007A
:104C40009E68BE403043D0601E7906F00306022EF7
:104C500013D1CF0802F1200656F827004E07F70EB1
:104C60000F26BE40B0434F07FF0E1E69BE403043C3
:104C7000CF0802F1200646F8270010684F000326EF
:104C8000BE40B0431E7906F003064F00BE403043DD
:104C900010605E6806F44036002E78D000BF404EAB
:104CA000366846F002063E4F3E603E46366806F0E5
:104CB0000206009600BF00BF3A4E8F0856F8270044
:104CC0008E07370F0F26BE40B043374EB24202D197
:104CD00000262EE05BE0354EB24201D1012628E0ED
:104CE000334EB24201D1022623E0324EB24201D10C
:104CF00003261EE0304EB24201D1042619E02F4EA9
:104D0000B24201D1052614E02D4EB24201D1062651
:104D10000FE02C4EB24201D107260AE02A4EB242E1
:104D200001D1082605E0294EB24201D1092600E052
:104D30000A268F073F0FBE4030431A4E8F0846F8B1
:104D400027004FF0B0463068A0435E6806F4801636
:104D500006B120434FF0B04630607068A0435E68F3
:104D600006F4001606B120434FF0B0467060686844
:104D7000A0435E6806F4003606B1204368602868E8
:104D8000A0435E6806F4803606B120432860491CC3
:104D90001E68CE40002E7FF423AFF8BD800000587F
:104DA000F444025808040058000002580004025855
:104DB00000080258000C0258001002580014025853
:104DC00000180258001C0258002002580024025803
:104DD0000AB1816101E00B048361704701480068FA
:104DE000000C70470010005C01480068704700002C
:104DF00000000024024692F8410020282DD100BF77
:104E000092F84000012801D102207047012082F869
:104E1000400000BF242082F841001068006820F0A4
:104E20000100136818601068006820F4805013684F
:104E300018601068006808431368186010680068FC
:104E400040F0010013681860202082F8410000BF84
:104E5000002082F8400000BFD7E70220D5E710B558
:104E600002460B4692F8410020282AD100BF92F852
:104E70004000012801D1022010BD012082F840002D
:104E800000BF242082F841001068006820F0010073
:104E9000146820601068016821F4706141EA032100
:104EA000106801601068006840F00100146820601C
:104EB000202082F8410000BF002082F8400000BF9F
:104EC000DAE70220D8E7000010B504460CB901204B
:104ED00010BD94F8410028B9002084F84000204615
:104EE00000F0FAF9242084F841002068006820F0DE
:104EF000010021680860606820F070602168086126
:104F00002068806820F4004021688860E0680128FB
:104F100005D1A06840F400402168886004E0A068E2
:104F200040F4044021688860E068022806D12068C7
:104F3000406840F400602168486005E020684068EF
:104F400020F40060216848602068406813490843E5
:104F5000216848602068C06820F400402168C8606B
:104F6000D4E904010843A16940EA01202168C8602E
:104F7000D4E907010843216808602068006840F010
:104F800001002168086000206064202084F841004E
:104F90000020206384F8420000BF99E700800002EF
:104FA0002DE9FC5F0446894692469B46DDE90C7874
:104FB0000E9E94F8410020287ED117B1B8F1000F61
:104FC00005D14FF4007060640120BDE8FC9F00BF74
:104FD00094F84000012801D10220F6E7012084F86E
:104FE000400000BFFFF700FF054619230122D1034F
:104FF0002046009504F0BEFC08B10120E5E7222020
:1050000084F84100402084F8420000206064676218
:10501000A4F82A8060635B46524649462046CDE9A3
:10502000006504F00FFC30B100BF002084F84000A0
:1050300000BF0120C9E7608DFF280CD9FF20208523
:105040003D48009094F828204FF080734946204650
:1050500004F074FC0BE0608D20853748009094F8D4
:1050600028204FF000734946204604F067FC00BF3B
:105070003346002204212046009504F07BFC08B151
:105080000120A2E72068406A616A0870606A401CDB
:105090006062208D401E2085608D401E6085608D81
:1050A00048B3208D38BB334600228021204600952E
:1050B00004F060FC18B100E03CE0012085E7608D61
:1050C000FF280CD9FF2020850020009094F828208C
:1050D0004FF080734946204604F030FC0BE0608DB1
:1050E00020850020009094F828204FF00073494656
:1050F000204604F023FC608D0028B9D12A463146B1
:10510000204604F078FC08B101205EE720202168E9
:10511000C86120684068094908402168486020202B
:1051200084F84100002084F8420000BF84F8400069
:1051300000BF4AE7022048E70024008000E800FEA4
:105140002DE9FC5F0446894692469B46DDE90C78D2
:105150000E9E94F8410020287DD117B1B8F1000FC0
:1051600005D14FF4007060640120BDE8FC9F00BFD2
:1051700094F84000012801D10220F6E7012084F8CC
:10518000400000BFFFF730FE054619230122D1037E
:105190002046009504F0EEFB08B10120E5E7212050
:1051A00084F84100402084F8420000206064676277
:1051B000A4F82A8060635B46524649462046CDE902
:1051C000006504F07DFB30B100BF002084F8400092
:1051D00000BF0120C9E7608DFF280CD9FF20208582
:1051E0000020009094F828204FF080734946204614
:1051F00004F0A4FB0BE0608D20850020009094F863
:1052000028204FF000734946204604F097FB00BF6A
:105210002A463146204604F01EFC08B10120A4E7CE
:10522000606A007821688862606A401C6062608DF4
:10523000401E6085208D401E2085608D40B3208DEE
:1052400030BB3346002280212046009504F092FBBB
:1052500010B1012089E73AE0608DFF280CD9FF20CA
:1052600020850020009094F828204FF08073494654
:10527000204604F063FB0BE0608D20850020009049
:1052800094F828204FF000734946204604F056FB5E
:10529000608D0028BCD12A463146204604F0ABFB85
:1052A00008B1012061E720202168C86120684068BA
:1052B0000849084021684860202084F84100002007
:1052C00084F8420000BF84F8400000BF4DE7022090
:1052D0004BE7000000E800FE10B5B8B0044614210A
:1052E00032A8FBF750F9C02102A8FBF74CF91E4980
:1052F0002068884236D108210020CDE90210239091
:1053000002A801F0F9F808B1FDF708F900BF174845
:10531000006840F00200154908600846006800F087
:105320000200019000BF00BF4FF440603290122095
:1053300033900020349035900420369032A90C48E8
:10534000FFF748FC00BF09480830006840F48000BF
:105350000649083108600846006800F480000190A2
:1053600000BF00BF38B010BD00580040E0440258F4
:1053700000040258034800680349097808440149B9
:1053800008607047000000240800002410B50320C6
:1053900000F0BCF802F03EF910490968C1F303219E
:1053A0000F4A515C01F01F0120FA01F40B4800681C
:1053B00000F00F001146085C00F01F0024FA00F016
:1053C00008490860084804600F2000F00FF808B191
:1053D000012010BD00F036F80020FAE7184402580A
:1053E000EEC10008100000240C00002470B5044633
:1053F0001148007808B9012070BD0F4800784FF4BB
:105400007A71B1FBF0F00D490968B1FBF0F528465F
:1054100003F020F808B10120EEE7102C07D200229B
:105420002146501E00F034F80548046001E00120D8
:10543000E2E70020E0E70000080000240C00002460
:105440000400002408B500BF0648006840F00200D0
:10545000044908600846006800F00200009000BFA0
:1054600000BF08BDF44402580146084600280DDB81
:1054700000BF00BF00F01F0301229A4043099B00B8
:1054800003F1E023C3F8002100BF00BF00BF704755
:105490002DE9F05F80460D46164606F0B9FA07463C
:1054A00039462A46334601F00700C0F1070ABAF12F
:1054B000040F02D94FF0040A01E0C0F1070AD146F7
:1054C00000F1040ABAF1070F02D24FF0000A01E01E
:1054D000A0F1030AD4464FF0010A0AFA09FAAAF128
:1054E000010A0AEA020A0AFA0CFA4FF0010B0BFA57
:1054F0000CFBABF1010B0BEA030B4AEA0B04214650
:10550000404606F08DFABDE8F09F000000BF00F0B5
:105510000702064B19684FF6FF031940044B0B4373
:1055200043EA0221014B196000BF70470CED00E017
:105530000000FA0570B5044615480068C0F3800005
:1055400048B91348006800F00700A04201D00120CC
:1055500070BD0020FCE70E48006820F007002043E3
:105560000B490860FFF740FC054607E0FFF73CFCED
:10557000401BB0F57A7F01D90120E9E704480838DB
:105580000068C0F340300028F0D00020E0E70000C1
:105590000C48025810B501F0F3FF05490968C1F342
:1055A0000211044A515C01F01F01C84010BD000007
:1055B00020440258EEC1000870B50146844D2D68A4
:1055C00005F00303824D2D68C5F30510804D2D1D98
:1055D0002D6805F001047E4D0C352D68C5F3CC0512
:1055E00015FB04F501EE105AB8EE411AF0EE410A2F
:1055F00000286FD023B1012B4ED0022B6BD16BE072
:10560000734D283D2D68C5F340153DB3704D283DC1
:105610002D68C5F3C1066F4D25FA06F201EE102A7A
:10562000F8EE411A01EE100AB8EE411A81EE812A15
:105630009FED691AC0EE811A654D08352D68C5F3D6
:10564000080501EE105AB8EE411A31EE811AF7EE54
:10565000001A31EE211A22EE010A1CE001EE100AB6
:10566000B8EE411ADFED5D1A81EE812A9FED5A1ADC
:10567000C0EE811A564D08352D68C5F3080501EEB8
:10568000105AB8EE411A31EE811AF7EE001A31EED7
:10569000211A22EE010A5BE001EE100AB8EE411A6F
:1056A000DFED4F1A81EE812A9FED4B1AC0EE811A71
:1056B000474D08352D68C5F3080501EE105AB8EEC0
:1056C000411A31EE811AF7EE001A31EE211A22EE5C
:1056D000010A3DE077E01DE001EE100AB8EE411A44
:1056E0009FED402AC2EE011A9FED3B1A80EE812AFF
:1056F000374D08352D68C5F3080501EE105AB8EE90
:10570000411A32EE011AB7EE002A31EE021A21EEEA
:10571000810A1DE001EE100AB8EE411ADFED2F1AE2
:1057200081EE812A9FED2C1AC0EE811A284D083592
:105730002D68C5F3080501EE105AB8EE411A31EE96
:10574000811AF7EE001A31EE211A22EE010A00BF8B
:1057500000BF1F4D08352D68C5F3462501EE105AD0
:10576000B8EE411AF7EE001A31EE211AC0EE011A16
:10577000BCEEE11A81ED001A154D08352D68C5F310
:10578000064501EE105AB8EE411AF7EE001A31EE56
:10579000211AC0EE011ABCEEE11A81ED011A0C4D7E
:1057A00008352D68C5F3066501EE105AB8EE411AAA
:1057B000F7EE001A31EE211AC0EE011ABCEEE11A22
:1057C00081ED021A03E000250D604D608D6070BD13
:1057D000284402580090D003000000460024744C76
:1057E0000024744A0024F44A70B50146844D2D68A3
:1057F00005F00303824D2D68C5F30530804D2D1D46
:105800002D68C5F300147E4D14352D68C5F3CC0505
:1058100015FB04F501EE105AB8EE411AF0EE410AFC
:1058200000286FD023B1012B4ED0022B6BD16BE03F
:10583000734D283D2D68C5F340153DB3704D283D8F
:105840002D68C5F3C1066F4D25FA06F201EE102A48
:10585000F8EE411A01EE100AB8EE411A81EE812AE3
:105860009FED691AC0EE811A654D10352D68C5F39C
:10587000080501EE105AB8EE411A31EE811AF7EE22
:10588000001A31EE211A22EE010A1CE001EE100A84
:10589000B8EE411ADFED5D1A81EE812A9FED5A1AAA
:1058A000C0EE811A564D10352D68C5F3080501EE7E
:1058B000105AB8EE411A31EE811AF7EE001A31EEA5
:1058C000211A22EE010A5BE001EE100AB8EE411A3D
:1058D000DFED4F1A81EE812A9FED4B1AC0EE811A3F
:1058E000474D10352D68C5F3080501EE105AB8EE86
:1058F000411A31EE811AF7EE001A31EE211A22EE2A
:10590000010A3DE077E01DE001EE100AB8EE411A11
:105910009FED402AC2EE011A9FED3B1A80EE812ACC
:10592000374D10352D68C5F3080501EE105AB8EE55
:10593000411A32EE011AB7EE002A31EE021A21EEB8
:10594000810A1DE001EE100AB8EE411ADFED301AAF
:1059500081EE812A9FED2C1AC0EE811A284D103558
:105960002D68C5F3080501EE105AB8EE411A31EE64
:10597000811AF7EE001A31EE211A22EE010A00BF59
:1059800000BF1F4D10352D68C5F3462501EE105A96
:10599000B8EE411AF7EE001A31EE211AC0EE011AE4
:1059A000BCEEE11A81ED001A154D10352D68C5F3D6
:1059B000064501EE105AB8EE411AF7EE001A31EE24
:1059C000211AC0EE011ABCEEE11A81ED011A0C4D4C
:1059D00010352D68C5F3066501EE105AB8EE411A70
:1059E000F7EE001A31EE211AC0EE011ABCEEE11AF0
:1059F00081ED021A03E000250D604D608D6070BDE1
:105A0000284402580090D003000000460024744C43
:105A10000024744A0024F44A70B50146844D2D6870
:105A200005F00303824D2D68C5F30550804D2D1DF3
:105A30002D68C5F300247E4D1C352D68C5F3CC05BB
:105A400015FB04F501EE105AB8EE411AF0EE410ACA
:105A500000286FD023B1012B4ED0022B6BD16BE00D
:105A6000734D283D2D68C5F340153DB3704D283D5D
:105A70002D68C5F3C1066F4D25FA06F201EE102A16
:105A8000F8EE411A01EE100AB8EE411A81EE812AB1
:105A90009FED691AC0EE811A654D18352D68C5F362
:105AA000080501EE105AB8EE411A31EE811AF7EEF0
:105AB000001A31EE211A22EE010A1CE001EE100A52
:105AC000B8EE411ADFED5D1A81EE812A9FED5A1A78
:105AD000C0EE811A564D18352D68C5F3080501EE44
